module.exports = [{
  hex: '0200000002fd6e3c6def1c808418590fc1214694d1de87113d07b1d13b896c68e685860708000000006b483045022100cc8482a5e8906b791ffa8ebb451910ffc9a3051d2ffcbb405a70d6d5036b3b4402204a6ece30ea1e7b76f4ea980a0809dc3f3853901e12bf186d2615c6eff944f82c0121025194773f4d9a3cd8ea9e017d634df99044ab8074ef8a06b583d6663fb08f5d68fefffffffd6e3c6def1c808418590fc1214694d1de87113d07b1d13b896c68e685860708010000006a473044022007044f71a8e340047037a2502a488324f673ef3555e30b703d430556348054eb022014823a856376c923c51a5938080766e01629ac27001919811aed2187ae9e87a501210272851d7855eb48348212a0190f7d09e62257a217696be0ff4fa04d503e0766adfeffffff02f048052a010000001976a91451e163983c7f099a1dc1683eb9723e036d6f3ee088ac0000000000000000000000000000000000000000000000000000000000000000000000000000743ba40b0000001976a9144046cf33a5e79c41ac5c82e5deecdf769062f3de88ac000000000000000000000000000000000000000000000000000000000000000000000000fd36037b22636f6d70616e79223a7b22726567697374726174696f6e5f6e756d626572223a22542d313837352d3334352f3234222c226a7572697364696374696f6e5f636f756e747279223a22555341222c226a7572697364696374696f6e5f73746174655f6f725f70726f76696e6365223a224469737472696374206f6620436f6c756d626961222c226c6567616c5f6e616d65223a2249424d2043616e616461204c74642e222c2261646472657373223a223336303020537465656c6573204176652045617374222c2263697479223a224d61726b68616d222c2273746174655f6f725f70726f76696e6365223a224f6e746172696f222c227a69705f6f725f706f7374616c5f636f6465223a224c3352395a37222c22636f756e747279223a2243616e616461222c22776562223a2268747470733a2f2f7777772e69626d2e636f6d222c227075626c69635f6b65795f776562223a2268747470733a2f2f657175696269742e69626d2e636f6d222c22656d61696c223a22657175696269744069626d2e636f6d222c2270686f6e65223a222b31202839303529203331362d35303030227d2c2269737375616e6365223a7b226973737565725f7075626c69635f6b6579223a22303235313934373733663464396133636438656139653031376436333464663939303434616238303734656638613036623538336436363633666230386635643638222c2269737375616e63655f6e616d65223a22696e697469616c2065717569626974207075626c6963206f66666572696e67222c2269737375616e63655f64617465223a313530313236353030372c227265737472696374696f6e5f6c6576656c223a302c2273656375726974795f74797065223a227072656665727265645f736861726573222c227072656665727265645f736861726573223a7b227061725f76616c7565223a3130302e31323334353637382c226469766964656e645f72617465223a31392e31322c2263756d756c6174697665223a302c226672657175656e6379223a332c2270617274696369706174696e67223a312c2272656465656d61626c65223a302c227265747261637461626c65223a312c22636f6e7665727469626c65223a3132337d7d7d68000000',
  offsetVout: 300,
  decoded: {
    txid: '5d7c53e2ebe702c3136d1a94c4feb836a0ce99322c557a8745802e17dbc749d6',
    hash: '5d7c53e2ebe702c3136d1a94c4feb836a0ce99322c557a8745802e17dbc749d6',
    size: 1271,
    vsize: 1271,
    version: 2,
    locktime: 104,
    vin: [
      {
        txid: "08078685e6686c893bd1b1073d1187ded1944621c10f591884801cef6d3c6efd",
        vout: 0,
        scriptSig: {
          asm: "3045022100cc8482a5e8906b791ffa8ebb451910ffc9a3051d2ffcbb405a70d6d5036b3b4402204a6ece30ea1e7b76f4ea980a0809dc3f3853901e12bf186d2615c6eff944f82c[ALL] 025194773f4d9a3cd8ea9e017d634df99044ab8074ef8a06b583d6663fb08f5d68",
          hex: "483045022100cc8482a5e8906b791ffa8ebb451910ffc9a3051d2ffcbb405a70d6d5036b3b4402204a6ece30ea1e7b76f4ea980a0809dc3f3853901e12bf186d2615c6eff944f82c0121025194773f4d9a3cd8ea9e017d634df99044ab8074ef8a06b583d6663fb08f5d68"
        },
        sequence: 4294967294
      },
      {
        txid: "08078685e6686c893bd1b1073d1187ded1944621c10f591884801cef6d3c6efd",
        vout: 1,
        scriptSig: {
          asm: "3044022007044f71a8e340047037a2502a488324f673ef3555e30b703d430556348054eb022014823a856376c923c51a5938080766e01629ac27001919811aed2187ae9e87a5[ALL] 0272851d7855eb48348212a0190f7d09e62257a217696be0ff4fa04d503e0766ad",
          hex: "473044022007044f71a8e340047037a2502a488324f673ef3555e30b703d430556348054eb022014823a856376c923c51a5938080766e01629ac27001919811aed2187ae9e87a501210272851d7855eb48348212a0190f7d09e62257a217696be0ff4fa04d503e0766ad"
        },
        sequence: 4294967294
      }
    ],
    vout: [
      {
        value: 49.9995672 * 10000 * 10000,
        n: 0,
        scriptPubKey: {
          asm: "OP_DUP OP_HASH160 51e163983c7f099a1dc1683eb9723e036d6f3ee0 OP_EQUALVERIFY OP_CHECKSIG",
          hex: "76a91451e163983c7f099a1dc1683eb9723e036d6f3ee088ac",
          reqSigs: 1,
          type: "pubkeyhash",
          addresses: [
            "mnyu2u1G24QCgV4mVJ3rBURRPbfSzN9JM4"
          ]
        },
        equibit: {
          payment_currency: 0,
          payment_tx_id: "0000000000000000000000000000000000000000000000000000000000000000",
          payload: ""
        }
      },
      {
        value: 500 * 10000 * 10000,
        n: 1,
        scriptPubKey: {
          asm: "OP_DUP OP_HASH160 4046cf33a5e79c41ac5c82e5deecdf769062f3de OP_EQUALVERIFY OP_CHECKSIG",
          hex: "76a9144046cf33a5e79c41ac5c82e5deecdf769062f3de88ac",
          reqSigs: 1,
          type: "pubkeyhash",
          addresses: [
            "mmNpNFeFfaTrJWVrN8GH53Wt2GhczwVm5y"
          ]
        },
        equibit: {
          payment_currency: 0,
          payment_tx_id: "0000000000000000000000000000000000000000000000000000000000000000",
          payload: '{"company":{"registration_number":"T-1875-345/24","jurisdiction_country":"USA","jurisdiction_state_or_province":"District of Columbia","legal_name":"IBM Canada Ltd.","address":"3600 Steeles Ave East","city":"Markham","state_or_province":"Ontario","zip_or_postal_code":"L3R9Z7","country":"Canada","web":"https://www.ibm.com","public_key_web":"https://equibit.ibm.com","email":"equibit@ibm.com","phone":"+1 (905) 316-5000"},"issuance":{"issuer_public_key":"025194773f4d9a3cd8ea9e017d634df99044ab8074ef8a06b583d6663fb08f5d68","issuance_name":"initial equibit public offering","issuance_date":1501265007,"restriction_level":0,"security_type":"preferred_shares","preferred_shares":{"par_value":100.12345678,"dividend_rate":19.12,"cumulative":0,"frequency":3,"participating":1,"redeemable":0,"retractable":1,"convertible":123}}}'
        }
      }
    ]
  },
  tx: {
    version: 2,
    locktime: 104,
    vin: [{
      hash: '08078685e6686c893bd1b1073d1187ded1944621c10f591884801cef6d3c6efd',
      index: 0,
      scriptSig: '483045022100cc8482a5e8906b791ffa8ebb451910ffc9a3051d2ffcbb405a70d6d5036b3b4402204a6ece30ea1e7b76f4ea980a0809dc3f3853901e12bf186d2615c6eff944f82c0121025194773f4d9a3cd8ea9e017d634df99044ab8074ef8a06b583d6663fb08f5d68',
      sequence: 4294967294
    },{
      hash: '08078685e6686c893bd1b1073d1187ded1944621c10f591884801cef6d3c6efd',
      index: 1,
      scriptSig: '473044022007044f71a8e340047037a2502a488324f673ef3555e30b703d430556348054eb022014823a856376c923c51a5938080766e01629ac27001919811aed2187ae9e87a501210272851d7855eb48348212a0190f7d09e62257a217696be0ff4fa04d503e0766ad',
      sequence: 4294967294
    }],
    vout: [
      {
        value: 49.9995672 * 10000 * 10000,
        address: 'mnyu2u1G24QCgV4mVJ3rBURRPbfSzN9JM4',
        equibit: {
          payment_currency: 0,
          payment_tx_id: '0000000000000000000000000000000000000000000000000000000000000000',
          payload: ''
        }
      },
      {
        value: 500 * 10000 * 10000,
        address: 'mmNpNFeFfaTrJWVrN8GH53Wt2GhczwVm5y',
        equibit: {
          payment_currency: 0,
          payment_tx_id: '0000000000000000000000000000000000000000000000000000000000000000',
          payload: '{"company":{"registration_number":"T-1875-345/24","jurisdiction_country":"USA","jurisdiction_state_or_province":"District of Columbia","legal_name":"IBM Canada Ltd.","address":"3600 Steeles Ave East","city":"Markham","state_or_province":"Ontario","zip_or_postal_code":"L3R9Z7","country":"Canada","web":"https://www.ibm.com","public_key_web":"https://equibit.ibm.com","email":"equibit@ibm.com","phone":"+1 (905) 316-5000"},"issuance":{"issuer_public_key":"025194773f4d9a3cd8ea9e017d634df99044ab8074ef8a06b583d6663fb08f5d68","issuance_name":"initial equibit public offering","issuance_date":1501265007,"restriction_level":0,"security_type":"preferred_shares","preferred_shares":{"par_value":100.12345678,"dividend_rate":19.12,"cumulative":0,"frequency":3,"participating":1,"redeemable":0,"retractable":1,"convertible":123}}}'
        }
      }]
  },
  hexItems: {
    vout: [{
      hex: 'f048052a010000001976a91451e163983c7f099a1dc1683eb9723e036d6f3ee088ac00000000000000000000000000000000000000000000000000000000000000000000000000',
      equibit: {
        hex: '00000000000000000000000000000000000000000000000000000000000000000000000000'
      }
    },{
      hex: '00743ba40b0000001976a9144046cf33a5e79c41ac5c82e5deecdf769062f3de88ac000000000000000000000000000000000000000000000000000000000000000000000000fd36037b22636f6d70616e79223a7b22726567697374726174696f6e5f6e756d626572223a22542d313837352d3334352f3234222c226a7572697364696374696f6e5f636f756e747279223a22555341222c226a7572697364696374696f6e5f73746174655f6f725f70726f76696e6365223a224469737472696374206f6620436f6c756d626961222c226c6567616c5f6e616d65223a2249424d2043616e616461204c74642e222c2261646472657373223a223336303020537465656c6573204176652045617374222c2263697479223a224d61726b68616d222c2273746174655f6f725f70726f76696e6365223a224f6e746172696f222c227a69705f6f725f706f7374616c5f636f6465223a224c3352395a37222c22636f756e747279223a2243616e616461222c22776562223a2268747470733a2f2f7777772e69626d2e636f6d222c227075626c69635f6b65795f776562223a2268747470733a2f2f657175696269742e69626d2e636f6d222c22656d61696c223a22657175696269744069626d2e636f6d222c2270686f6e65223a222b31202839303529203331362d35303030227d2c2269737375616e6365223a7b226973737565725f7075626c69635f6b6579223a22303235313934373733663464396133636438656139653031376436333464663939303434616238303734656638613036623538336436363633666230386635643638222c2269737375616e63655f6e616d65223a22696e697469616c2065717569626974207075626c6963206f66666572696e67222c2269737375616e63655f64617465223a313530313236353030372c227265737472696374696f6e5f6c6576656c223a302c2273656375726974795f74797065223a227072656665727265645f736861726573222c227072656665727265645f736861726573223a7b227061725f76616c7565223a3130302e31323334353637382c226469766964656e645f72617465223a31392e31322c2263756d756c6174697665223a302c226672657175656e6379223a332c2270617274696369706174696e67223a312c2272656465656d61626c65223a302c227265747261637461626c65223a312c22636f6e7665727469626c65223a3132337d7d7d',
      equibit: {
        hex: '000000000000000000000000000000000000000000000000000000000000000000000000fd36037b22636f6d70616e79223a7b22726567697374726174696f6e5f6e756d626572223a22542d313837352d3334352f3234222c226a7572697364696374696f6e5f636f756e747279223a22555341222c226a7572697364696374696f6e5f73746174655f6f725f70726f76696e6365223a224469737472696374206f6620436f6c756d626961222c226c6567616c5f6e616d65223a2249424d2043616e616461204c74642e222c2261646472657373223a223336303020537465656c6573204176652045617374222c2263697479223a224d61726b68616d222c2273746174655f6f725f70726f76696e6365223a224f6e746172696f222c227a69705f6f725f706f7374616c5f636f6465223a224c3352395a37222c22636f756e747279223a2243616e616461222c22776562223a2268747470733a2f2f7777772e69626d2e636f6d222c227075626c69635f6b65795f776562223a2268747470733a2f2f657175696269742e69626d2e636f6d222c22656d61696c223a22657175696269744069626d2e636f6d222c2270686f6e65223a222b31202839303529203331362d35303030227d2c2269737375616e6365223a7b226973737565725f7075626c69635f6b6579223a22303235313934373733663464396133636438656139653031376436333464663939303434616238303734656638613036623538336436363633666230386635643638222c2269737375616e63655f6e616d65223a22696e697469616c2065717569626974207075626c6963206f66666572696e67222c2269737375616e63655f64617465223a313530313236353030372c227265737472696374696f6e5f6c6576656c223a302c2273656375726974795f74797065223a227072656665727265645f736861726573222c227072656665727265645f736861726573223a7b227061725f76616c7565223a3130302e31323334353637382c226469766964656e645f72617465223a31392e31322c2263756d756c6174697665223a302c226672657175656e6379223a332c2270617274696369706174696e67223a312c2272656465656d61626c65223a302c227265747261637461626c65223a312c22636f6e7665727469626c65223a3132337d7d7d'
      }
    }]
  }
}]

// fd6e3c6def1c808418590fc1214694d1de87113d07b1d13b896c68e685860708000000006b483045022100cc8482a5e8906b791ffa8ebb451910ffc9a3051d2ffcbb405a70d6d5036b3b4402204a6ece30ea1e7b76f4ea980a0809dc3f3853901e12bf186d2615c6eff944f82c0121025194773f4d9a3cd8ea9e017d634df99044ab8074ef8a06b583d6663fb08f5d68fefffffffd6e3c6def1c808418590fc1214694d1de87113d07b1d13b896c68e685860708010000006a473044022007044f71a8e340047037a2502a488324f673ef3555e30b703d430556348054eb022014823a856376c923c51a5938080766e01629ac27001919811aed2187ae9e87a501210272851d7855eb48348212a0190f7d09e62257a217696be0ff4fa04d503e0766adfeffffff02f048052a010000001976a91451e163983c7f099a1dc1683eb9723e036d6f3ee088ac0000000000000000000000000000000000000000000000000000000000000000000000000000743ba40b0000001976a9144046cf33a5e79c41ac5c82e5deecdf769062f3de88ac000000000000000000000000000000000000000000000000000000000000000000000000fd36037b22636f6d70616e79223a7b22726567697374726174696f6e5f6e756d626572223a22542d313837352d3334352f3234222c226a7572697364696374696f6e5f636f756e747279223a22555341222c226a7572697364696374696f6e5f73746174655f6f725f70726f76696e6365223a224469737472696374206f6620436f6c756d626961222c226c6567616c5f6e616d65223a2249424d2043616e616461204c74642e222c2261646472657373223a223336303020537465656c6573204176652045617374222c2263697479223a224d61726b68616d222c2273746174655f6f725f70726f76696e6365223a224f6e746172696f222c227a69705f6f725f706f7374616c5f636f6465223a224c3352395a37222c22636f756e747279223a2243616e616461222c22776562223a2268747470733a2f2f7777772e69626d2e636f6d222c227075626c69635f6b65795f776562223a2268747470733a2f2f657175696269742e69626d2e636f6d222c22656d61696c223a22657175696269744069626d2e636f6d222c2270686f6e65223a222b31202839303529203331362d35303030227d2c2269737375616e6365223a7b226973737565725f7075626c69635f6b6579223a22303235313934373733663464396133636438656139653031376436333464663939303434616238303734656638613036623538336436363633666230386635643638222c2269737375616e63655f6e616d65223a22696e697469616c2065717569626974207075626c6963206f66666572696e67222c2269737375616e63655f64617465223a313530313236353030372c227265737472696374696f6e5f6c6576656c223a302c2273656375726974795f74797065223a227072656665727265645f736861726573222c227072656665727265645f736861726573223a7b227061725f76616c7565223a3130302e31323334353637382c226469766964656e645f72617465223a31392e31322c2263756d756c6174697665223a302c226672657175656e6379223a332c2270617274696369706174696e67223a312c2272656465656d61626c65223a302c227265747261637461626c65223a312c22636f6e7665727469626c65223a3132337d7d7d68000000
// Version:
// 02000000
//
// VIN length:
// 02
//
// Hash:
// 545f6161d2be3bdfe7184ee1f72123c3918738da8b97f11e23acdd34059f7a2d
//
// Index:
// 01000000
//
// Script length:
// 6b
//
// Script:
// 4830450221008c33d765
// ae16cfa3cc653c5c039d
// 58131fbbdf76266af7a7
// 6910fc1ba39de0b80220
// 48ae83fc9b82f62b8166
// 41158dd1cfd398d2c56d
// 5f6f812c9fa588947311
// d8400121033701fc7f24
// 2ae2dd63a18753518b6d
// 1425e53496878924b6c0
// dc08d800af46ad
//
// Sequence:
// ffffffff
//
// 0200e1f505000000001976a91461ca8116d03694952a3ad252d53c695da7d95f6188ac18ddf505000000001976a9145e9f5c8cc17ecaaea1b4e5a3d091ca0aed1342f788ac00000000