module.exports = [{
  title: 'Blank EQB',
  hex: '02000000031f703534fdbc79f4afe57a45b7d581a0414c5b688f00c317e1cd0e17c15190f5000000006a4730440220717eb28564129bca815a66de74df1b124e2ceb3081516c9c0adef0c784b68f0102203631af61828898eafd8e6d6ac62e5192b581d73023d372c752ec4e0bc0de0dd3012103a6afa2211fc96a4130e767da4a9e802f5e922a151c5cd6d4bffa80358dd1f9a3feffffff5ad743d788f5f8a1fd553019f783df348f1c170dc1a1f2584cd6092845e6d227000000006b483045022100d5808879b45c5d91759ff85c68575690dd832e4234b3d24ec5d0d9b99465ccd50220267fc1013e4053855d1537f8fe394a91fdc4441e124b929d6d0437f0f438f1e7012103a6afa2211fc96a4130e767da4a9e802f5e922a151c5cd6d4bffa80358dd1f9a3feffffff6c17de25295962f995c307d87f8d146ae15b2195253dc6f69a185ddb73d82d9c000000006a47304402203accbb904e311807f09973a42e08e6ffe946097fef76bd56a1ff4546873d0cba02205725dfaf12bcfc893301135c91d3833ce4a16f318ed11e49421cfe7b89d61c5f012103a6afa2211fc96a4130e767da4a9e802f5e922a151c5cd6d4bffa80358dd1f9a3feffffff0200e9a435000000001976a91435c0f7388199877965a2e1c322a58f984a3edce388ac000000000000000000000000000000000000000000000000000000000000000000000000000041b70301000000001976a914b648c11bab8109c8ebcc008a5815faa2250a1ea388ac000000000000000000000000000000000000000000000000000000000000000000000000000067000000',
  decoded: {
    txid: '73325dfbe8c794e5eb3e430e16ec334fd6d72c1ad664086c260b5a7008243395',
    hash: '73325dfbe8c794e5eb3e430e16ec334fd6d72c1ad664086c260b5a7008243395',
    size: 596,
    vsize: 596,
    version: 2,
    locktime: 103,
    vin: [
      {
        txid: 'f59051c1170ecde117c3008f685b4c41a081d5b7457ae5aff479bcfd3435701f',
        vout: 0,
        scriptSig: {
          asm: '30440220717eb28564129bca815a66de74df1b124e2ceb3081516c9c0adef0c784b68f0102203631af61828898eafd8e6d6ac62e5192b581d73023d372c752ec4e0bc0de0dd3[ALL] 03a6afa2211fc96a4130e767da4a9e802f5e922a151c5cd6d4bffa80358dd1f9a3',
          hex: '4730440220717eb28564129bca815a66de74df1b124e2ceb3081516c9c0adef0c784b68f0102203631af61828898eafd8e6d6ac62e5192b581d73023d372c752ec4e0bc0de0dd3012103a6afa2211fc96a4130e767da4a9e802f5e922a151c5cd6d4bffa80358dd1f9a3'
        },
        sequence: 4294967294
      },
      {
        txid: '27d2e6452809d64c58f2a1c10d171c8f34df83f7193055fda1f8f588d743d75a',
        vout: 0,
        scriptSig: {
          asm: '3045022100d5808879b45c5d91759ff85c68575690dd832e4234b3d24ec5d0d9b99465ccd50220267fc1013e4053855d1537f8fe394a91fdc4441e124b929d6d0437f0f438f1e7[ALL] 03a6afa2211fc96a4130e767da4a9e802f5e922a151c5cd6d4bffa80358dd1f9a3',
          hex: '483045022100d5808879b45c5d91759ff85c68575690dd832e4234b3d24ec5d0d9b99465ccd50220267fc1013e4053855d1537f8fe394a91fdc4441e124b929d6d0437f0f438f1e7012103a6afa2211fc96a4130e767da4a9e802f5e922a151c5cd6d4bffa80358dd1f9a3'
        },
        sequence: 4294967294
      },
      {
        txid: '9c2dd873db5d189af6c63d2595215be16a148d7fd807c395f962592925de176c',
        vout: 0,
        scriptSig: {
          asm: '304402203accbb904e311807f09973a42e08e6ffe946097fef76bd56a1ff4546873d0cba02205725dfaf12bcfc893301135c91d3833ce4a16f318ed11e49421cfe7b89d61c5f[ALL] 03a6afa2211fc96a4130e767da4a9e802f5e922a151c5cd6d4bffa80358dd1f9a3',
          hex: '47304402203accbb904e311807f09973a42e08e6ffe946097fef76bd56a1ff4546873d0cba02205725dfaf12bcfc893301135c91d3833ce4a16f318ed11e49421cfe7b89d61c5f012103a6afa2211fc96a4130e767da4a9e802f5e922a151c5cd6d4bffa80358dd1f9a3'
        },
        sequence: 4294967294
      }
    ],
    vout: [
      {
        value: 9 * 100000000,
        n: 0,
        scriptPubKey: {
          asm: 'OP_DUP OP_HASH160 35c0f7388199877965a2e1c322a58f984a3edce3 OP_EQUALVERIFY OP_CHECKSIG',
          hex: '76a91435c0f7388199877965a2e1c322a58f984a3edce388ac',
          reqSigs: 1,
          type: 'pubkeyhash',
          addresses: [
            'mkRBGiKuV6bPywuoC24cbAq1imh5t5Ah1f'
          ]
        },
        equibit: {
          payment_currency: 0,
          payment_tx_id: '',
          issuance_tx_id: '0000000000000000000000000000000000000000000000000000000000000000',
          issuance_json: ''
        }
      },
      {
        value: 0.17020737 * 100000000,
        n: 1,
        scriptPubKey: {
          asm: 'OP_DUP OP_HASH160 b648c11bab8109c8ebcc008a5815faa2250a1ea3 OP_EQUALVERIFY OP_CHECKSIG',
          hex: '76a914b648c11bab8109c8ebcc008a5815faa2250a1ea388ac',
          reqSigs: 1,
          type: 'pubkeyhash',
          addresses: [
            'mx8nS2VU1wWsYZhkZKQZDqZUc7k4AYBWBU'
          ]
        },
        equibit: {
          payment_currency: 0,
          payment_tx_id: '',
          issuance_tx_id: '0000000000000000000000000000000000000000000000000000000000000000',
          issuance_json: ''
        }
      }
    ]
  },
  tx: {
    version: 2,
    locktime: 103,
    vin: [
      {
        txid: 'f59051c1170ecde117c3008f685b4c41a081d5b7457ae5aff479bcfd3435701f',
        vout: 0,
        script: '',
        sequence: 4294967294
      },
      {
        txid: '27d2e6452809d64c58f2a1c10d171c8f34df83f7193055fda1f8f588d743d75a',
        vout: 0,
        script: '',
        sequence: 4294967294
      },
      {
        txid: '9c2dd873db5d189af6c63d2595215be16a148d7fd807c395f962592925de176c',
        vout: 0,
        scriptSig: '',
        sequence: 4294967294
      }
    ],
    vout: [
      {
        value: 9 * 100000000,
        address: 'mkRBGiKuV6bPywuoC24cbAq1imh5t5Ah1f',
        equibit: {
          payment_currency: 0,
          payment_tx_id: '',
          issuance_tx_id: '0000000000000000000000000000000000000000000000000000000000000000',
          issuance_json: ''
        }
      },
      {
        value: 0.17020737 * 100000000,
        address: 'mx8nS2VU1wWsYZhkZKQZDqZUc7k4AYBWBU',
        equibit: {
          payment_currency: 0,
          payment_tx_id: '',
          issuance_tx_id: '0000000000000000000000000000000000000000000000000000000000000000',
          issuance_json: ''
        }
      }
    ]
  },
  hexItems: {
    vin: [{
      hex: '1f703534fdbc79f4afe57a45b7d581a0414c5b688f00c317e1cd0e17c15190f5000000006a4730440220717eb28564129bca815a66de74df1b124e2ceb3081516c9c0adef0c784b68f0102203631af61828898eafd8e6d6ac62e5192b581d73023d372c752ec4e0bc0de0dd3012103a6afa2211fc96a4130e767da4a9e802f5e922a151c5cd6d4bffa80358dd1f9a3feffffff'
    }, {
      offset: 152,
      hex: '5ad743d788f5f8a1fd553019f783df348f1c170dc1a1f2584cd6092845e6d227000000006b483045022100d5808879b45c5d91759ff85c68575690dd832e4234b3d24ec5d0d9b99465ccd50220267fc1013e4053855d1537f8fe394a91fdc4441e124b929d6d0437f0f438f1e7012103a6afa2211fc96a4130e767da4a9e802f5e922a151c5cd6d4bffa80358dd1f9a3feffffff'
    }, {
      offset: 300,
      hex: '6c17de25295962f995c307d87f8d146ae15b2195253dc6f69a185ddb73d82d9c000000006a47304402203accbb904e311807f09973a42e08e6ffe946097fef76bd56a1ff4546873d0cba02205725dfaf12bcfc893301135c91d3833ce4a16f318ed11e49421cfe7b89d61c5f012103a6afa2211fc96a4130e767da4a9e802f5e922a151c5cd6d4bffa80358dd1f9a3feffffff'
    }],
    voutOffset: 447,
    vout: [{
      hex: '00e9a435000000001976a91435c0f7388199877965a2e1c322a58f984a3edce388ac0000000000000000000000000000000000000000000000000000000000000000000000000000',
      equibit: {
        hex: '0000000000000000000000000000000000000000000000000000000000000000000000000000'
      }
    }, {
      hex: '41b70301000000001976a914b648c11bab8109c8ebcc008a5815faa2250a1ea388ac0000000000000000000000000000000000000000000000000000000000000000000000000000',
      equibit: {
        hex: '0000000000000000000000000000000000000000000000000000000000000000000000000000'
      }
    }]
  }
}]
